:020000040000FA
:1000000048180020D1010000F1010000F3010000B8
:1000100000000000000000000000000000000000E0
:10002000000000000000000000000000F5010000DA
:100030000000000000000000F7010000F9010000CE
:10004000FB010000FB010000FB010000FB010000C0
:10005000FB010000FB010000FB010000FB010000B0
:10006000FB010000FB010000FB010000FB010000A0
:10007000FB010000FB010000FB010000FB01000090
:10008000FB010000FB010000FB010000FB01000080
:10009000FB010000FB010000FB010000FB01000070
:1000A000FB010000FB010000FB010000FB01000060
:1000B000FB010000FB010000FB010000FB01000050
:1000C00000F002F800F059F80CA030C808382418E5
:1000D0002D18A246671EAB4654465D46AC4201D180
:1000E00000F04BF87E460F3E0FCCB6460126334259
:1000F00000D0FB1AA246AB4633431847482B0000FA
:10010000682B0000103A02D378C878C1FAD8520799
:1001100001D330C830C101D504680C6070470000BD
:100120000023002400250026103A01D378C1FBD813
:10013000520700D330C100D50B60704710B5782945
:1001400002D102F08BF910BD632902D102F0E7FB66
:1001500010BD732902D102F0EAFB10BD002010BDD2
:100160001FB502F0CBFC04000020002102F040FD8E
:10017000401C60601FBD10B510BD02F0A0FC114610
:10018000FFF7EEFF01F026FA02F0CBFC03B4FFF715
:10019000F2FF03BC02F010FD70B505460C46164692
:1001A00002E00FCC0FC5103E102EFAD2082E02D35B
:1001B00003CC03C5083E042E07D301CC01C5361F6E
:1001C00003E021782970641C6D1C761EF9D270BD85
:1001D0000D480E4901600E4901600E4901600E4A4A
:1001E0000E491160002101600D4880470D4800470D
:1001F000FEE7FEE7FEE7FEE7FEE7FEE70A480B49FB
:100200000B4A0C4B704700000001005059000000E1
:10021000160000008800000060000050A55A000091
:10022000B1150000C1000000480E00204818002051
:100230004813002048130020F8B504460D46164622
:100240001F46E0693043E061A0690121A94088436D
:100250003843A0614D48844207D04C484030844226
:1002600003D04A488030844202D1042000F07FF855
:100270004648C030844206D04548844203D04448B2
:100280004030844202D1052000F071F8F8BD70B50D
:1002900004460D460120A8402946103101228A401B
:1002A0001043E1698143E1613848844207D037480F
:1002B0004030844203D035488030844202D104204B
:1002C00000F05CF832484038844206D0304884421E
:1002D00003D02F484030844202D1052000F04EF870
:1002E00070BDF8B504460D4616461F46E06930431A
:1002F000E061A0690121A94088433843A061022040
:1003000000F035F8F8BD70B504460D460120A84050
:100310002946103101228A401043E1698143E1619D
:10032000022000F02BF870BDF8B504460D461646C5
:100330001F46E0693043E061A0690121A94088437C
:100340003843A061032000F012F8F8BD70B50446F0
:100350000D460120A8402946103101228A40104351
:10036000E1698143E161032000F008F870BDC20635
:10037000D20E01219140074A11607047C206D20E89
:1003800001219140034A80321160704700400050C3
:100390000041005000E100E010B5044690480069BB
:1003A000C008C00020438E4908610846C06880210B
:1003B0000840002807D08A48C06808438849C860B8
:1003C0000020C04310BD01F08AF80020FAE7014682
:1003D0008348006850221043814A106081480069B8
:1003E000042210437F4A106100290CD07C48006829
:1003F000202210437A4A10601C20012282407A4B4E
:100400001A6000BF00BF7047FEB50020029074481C
:10041000456AC0012840002801D00020FEBD01200F
:1004200040042840002801D0704F00E06F4F0120A9
:1004300000032840002801D0022000E001200190A4
:10044000032000022840060A002E01D1022408E001
:10045000012E01D1042404E0022E01D1082400E081
:100460001024A906890E203179430846214602F05E
:100470003EF90090019902F03AF902900298CDE716
:1004800070B55748006945076D0F002D01D1574CD5
:100490000EE0012D01D1EC030AE0022D03D1FFF79C
:1004A000B3FF044604E0032D01D1514C00E04F4C52
:1004B0004B48C0690007000F461C3146204602F039
:1004C00016F970BDF8B5044620780007000F054600
:1004D000074604202840002805D0284604218843E8
:1004E00010210843054638460121002905D03C4A21
:1004F000126802433A4B1A6004E0394A1268824398
:10050000374B1A6000BF0020009008E03448C068F4
:100510002840A84200D106E00098401C00903549D0
:1005200000988842F2D300BF32490098884202D135
:100530000020C043F8BD207A01282AD1607A0C211E
:1005400048432D494018A17A4900465A2B48864213
:1005500002D10120C043EDE76068064320484662AF
:100560000020009009E01E48C068042108400028CF
:1005700000D006E00098401C00901E490098884278
:10058000F1D300BF1B490098884202D10220C0432A
:10059000D0E71348C06900090001216908431049E8
:1005A000C861E068FFF7F8FE0020C3E710B5044615
:1005B0001349144800684A10801802F098F8604304
:1005C00011494861002088610520086100BF0E487C
:1005D00000690121090408400028F8D010BD00007E
:1005E0000002005000ED00E000E100E0001BB70059
:1005F00010270000A086010000000020FFFF00007F
:1006000040420F004400002000E000E010B5002848
:1006100019DAF74A03071B0F083B9B089B00D258C7
:100620008307DC0EFF23A3409A438B071B0E84072E
:10063000E40EA3401A43EE4B0407240F083CA40821
:10064000A4001A5118E0EB4A03231B02D2188308B6
:100650009B00D2588307DC0EFF23A3409A438B07ED
:100660001B0E8407E40EA3401A43E24B032424022A
:100670001B198408A4001A5110BDDF49884206D115
:10068000DE49896882141143DC4A916014E0DC4938
:10069000884207D1D9498968012252031143D74AB8
:1006A000916009E0D749884206D1D449896801227E
:1006B00092031143D14A91607047CF49884206D1D5
:1006C000CE49896882149143CC4A916014E0CC49A8
:1006D000884207D1C9498968012252039143C74A18
:1006E000916009E0C749884206D1C449896801225E
:1006F00092039143C14A9160704710B50246BE48CB
:1007000082420FD105200007C068941420430524BD
:100710002407E0602046C0689414A0430524240701
:10072000E0602BE0B648824211D105200007C06886
:1007300001246403204305242407E0602046C068A8
:1007400001246403A04305242407E06016E0AD48BB
:10075000824211D105200007C0680124A403204370
:1007600005242407E0602046C0680124A403A043B8
:1007700005242407E06001E0002010BD01231B04D4
:1007800005E018465B1E002801DC0020F5E7106834
:10079000C007C00F0028F4D18868202801D10020AC
:1007A00088601068F824A0438C68E400204310603F
:1007B00010680124A404A0430C6820431060D06892
:1007C00008242043D06010688F4C20404C682043A0
:1007D00010600020D1E710B504468748844203D159
:1007E0000E2000F06CFB0CE08548844203D10F2002
:1007F00000F065FB05E08348844202D1102000F040
:100800005EFB10BD202900D100210268F8239A4325
:10081000CB001A4302607047026801235B051A404F
:10082000002A07D002680F231B039A430B031A43C5
:10083000026007E002680F231B039A438B1E1B0311
:100840001A430260704770B50546704E6A4885428B
:1008500004D16A488469C1020C400BE068488542B3
:1008600004D16648846901030C4003E0634884694D
:1008700041030C40002C01D000D002D1FFF7C4FD91
:1008800070BD01200005844205D04000844202D0A2
:100890004000844202D1FFF7F3FDF1E73046EFE775
:1008A000FEB505460F461646002000902846FFF785
:1008B000CAFF0190002E1BD03146019801F017FFAE
:1008C000401C4008441EFF2C00D9FF24601C41003E
:1008D000019801F00CFF00900098B04200D9641C10
:1008E000A868FF210904884321040843A86004E0A4
:1008F000A868FF2109040843A860002F20D03946CA
:10090000019801F0F4FE44087F2C00D97F24002CCC
:1009100002D10198009004E06100019801F0E7FE27
:1009200000900098B84205D9641C6100019801F05C
:10093000DEFE0090A868000A00022043A86003E0E1
:10094000A868FF210843A8600098FEBD70B5044662
:100950002046FFF778FF0646A068C5B2002D01D1FA
:10096000304670BD7008294601F0C1FEF9E770B548
:1009700004462046FFF767FF0646A068FF210904EA
:100980000840050C7008691C01F0B1FE70BD10B57F
:100990000446206801214904084320601648844227
:1009A00003D10E2000F084FA0CE01548844203D1F4
:1009B0000F2000F07DFA05E01248844202D1102099
:1009C00000F076FA10BD10B50446206801214904F4
:1009D000884320600848844203D10E2000F06FFA5B
:1009E0001CE00748844213D10F2000F068FA15E09C
:1009F0001CED00E000E100E00000034000020050B8
:100A00000000134000000D40F9F7FFFF001BB70086
:100A1000F748844202D1102000F051FA10BD02467E
:100A20001068C007C00F002801D00020704710696F
:100A3000086010680123184310600120F6E70246A1
:100A40001068C007C00F002801D000207047086858
:100A5000106210680123184310600120F6E7034676
:100A600018690860022A01D1586948601046704729
:100A7000034608681862022A01D148685862104685
:100A80007047002904D0826B01231A43826303E07C
:100A9000826B5208520082637047002904D0826B37
:100AA00002231A43826303E0826B02239A43826328
:100AB000704710B50446E068012149020843E06030
:100AC000CC48844207D10E2000F0F2F902210E201A
:100AD000FFF79CFD14E0C848844207D10F2000F0C6
:100AE000E7F902210F20FFF791FD09E0C048844299
:100AF00006D1102000F0DCF902211020FFF786FD5E
:100B000010BD10B50446E068012149028843E06049
:100B1000B848844203D10E2000F0D1F90CE0B64869
:100B2000844203D10F2000F0CAF905E0B0488442A6
:100B300002D1102000F0C3F910BD002905D00268D1
:100B40000123DB071A43026003E0026852005208E7
:100B50000260704710B503680F242403A3431403F5
:100B600023430360002905D003680124640523435F
:100B7000036004E0036801246405A343036010BD1F
:100B800070B503460C46002111E0002507E06D1CFE
:100B900001208007854202D30020C04370BD586801
:100BA000082630400028F2D1605C1862491C91424E
:100BB000EBD30020F2E770B503460C46002112E0AB
:100BC000002507E06D1C01208007854202D300202C
:100BD000C04370BD5868082630400028F2D1480054
:100BE000205A1862491C9142EAD30020F1E770B5FF
:100BF00003460C46002112E0002507E06D1C012091
:100C00008007854202D30020C04370BD5868082683
:100C100030400028F2D1880020581862491C9142C7
:100C2000EAD30020F1E730B503460C46002111E07D
:100C3000002507E06D1C01208007854202D30020BB
:100C4000C04330BD5868C007C00F0028F2D11869F2
:100C50006054491C9142EBD30020F2E770B5034683
:100C60000C46002112E0002507E06D1C01208007E2
:100C7000854202D30020C04370BD5868C007C00F32
:100C80000028F2D118694E00A053491C9142EAD3C2
:100C90000020F1E770B503460C46002112E0002564
:100CA00007E06D1C01208007854202D30020C0436D
:100CB00070BD5868C007C00F0028F2D118698E00B7
:100CC000A051491C9142EAD30020F1E7FFB50C4640
:100CD0000021002328E00AE004E00569EEB20D4699
:100CE000491C56554568ED07ED0F002DF5D04568B8
:100CF00008263540002DEFD1002C02D1651E05627B
:100D000001E0E55C05624568ED07ED0F002D0AD1B5
:100D100004E00569EEB20D46491C56554568ED07DD
:100D2000ED0F002DF5D05B1C039DAB42D3D30AE041
:100D300004E00569EEB20D46491C56554568ED07BD
:100D4000ED0F002DF5D00568ED07ED0F002DEFD16B
:100D500004E00569EEB20D46491C56554568ED079D
:100D6000ED0F002DF5D0FFBDFFB50C46002100238F
:100D700029E00AE004E006690D46491CAD00565121
:100D80004568ED07ED0F002DF5D045680826354084
:100D9000002DEFD1002C02D1651E056202E05D003E
:100DA000655B05624568ED07ED0F002D0AD104E093
:100DB00006690D46491CAD0056514568ED07ED0F1B
:100DC000002DF5D05B1C039DAB42D2D30AE004E0BA
:100DD00006690D46491CAD0056514568ED07ED0FFB
:100DE000002DF5D00568ED07ED0F002DEFD10AE0DD
:100DF00000000D40000003400000134006690D464E
:100E0000491CAD0056514568ED07ED0F002DF5D09A
:100E1000FFBDFFB50C460021002329E00AE004E0F5
:100E200006690D46491CAD0056514568ED07ED0FAA
:100E3000002DF5D0456808263540002DEFD1002C57
:100E400002D1651E056202E09D0065590562456894
:100E5000ED07ED0F002D0AD104E006690D46491C8F
:100E6000AD0056514568ED07ED0F002DF5D05B1C28
:100E7000039DAB42D2D30AE004E006690D46491C4B
:100E8000AD0056514568ED07ED0F002DF5D0056812
:100E9000ED07ED0F002DEFD104E006690D46491C6A
:100EA000AD0056514568ED07ED0F002DF5D0FFBDA3
:100EB000C206D20E01219140054A11607047C20658
:100EC000D20E01219140024A803211607047000029
:100ED00000E100E070B50024FC48C0690F21090260
:100EE0000840000A451CF94840698007800F002827
:100EF00006D0012806D0022807D003280BD108E02D
:100F0000F34C08E00124E40305E0FFF77DFA044612
:100F100001E0EF4C00BF00BF2946204601F0E7FB8F
:100F20000446204670BD30B5C3695B085B00C361F1
:100F3000C369CC07E40F2343C361836803242403FC
:100F4000A34383608368140303252D032C402343AC
:100F5000836030BDF8B504460D46DE48844215D1A5
:100F60000003C0680121090408432103C860084642
:100F7000C0680121090488432103C860D348806800
:100F8000012109040843D149886017E005200007C2
:100F9000C06801214904084305210907C8600846C3
:100FA000C06801214904884305210907C860C74872
:100FB0008068012149040843C449886060680121B0
:100FC000084360606068022108436060286900028D
:100FD000E968C9000843A9688900084369680843AB
:100FE000A060206A400A40022062206A297D0843EE
:100FF0002062FFF76FFF0090687D012807D1286805
:101000000701606A0121C9070843606204E02F6894
:10101000606A4000400860623946009801F067FB52
:10102000461E3946009801F062FB7808814200D3E1
:10103000761CA948864205D9606A0121C907084380
:1010400060623609606A000C00046062606AB1B2D6
:10105000084360620020F8BD10B5044600BFA069D7
:101060000121C90208400028F9D09C48844209D1D6
:101070009648806889018843944988600D2000F073
:101080006DF909E0914880680121090488438F497E
:1010900088600C2000F062F910BD70B504460D4662
:1010A000E5608C48844203D10C2000F050F902E046
:1010B0000D2000F04CF970BD70B504460D46E06897
:1010C000A843E0608348844203D10C2000F046F935
:1010D00002E00D2000F042F970BD0246C807C00FC3
:1010E000002807D110200840002803D10220084022
:1010F000002801D00720704704200840002807D0AE
:10110000906970231843906150690123184350611E
:1011100008200840002804D0D06901239B0418430C
:10112000D061FF2001300840002803D050693823E7
:101130001843506140200840002803D01069402324
:101140001843106180200840002803D0506906230E
:101150001843506120200840002804D09069FF23E4
:101160000233184390610020C5E70246102927D0BA
:1011700008DC012920D0022919D0042912D008291D
:1011800038D10AE0202926D040292ED0802927D026
:10119000C81FF93800282DD117E01069082318401E
:1011A000C00870471069042318408008F9E71069E7
:1011B000022318404008F4E71069C007C00FF0E7A9
:1011C0001069102318400009EBE71069FF23013371
:1011D0001840000AE5E71069202318404009E0E7BD
:1011E000106980231840C009DBE7106940231840CC
:1011F0008009D6E70720D4E710B5C3690124640449
:1012000023405B0C0B70C369640023409B0C13707C
:1012100010BD70B503460C46002110E0002506E025
:101220006D1C01208007854201D3012070BD9869A3
:10123000022630400028F3D118686054491C9142BE
:10124000ECD30020F2E770B503460C46002111E014
:10125000002506E06D1C01208007854201D3012096
:1012600070BD98690126760230400028F2D0605C9B
:101270001860491C9142EBD30020F1E7026B202358
:101280009A430263026B40231A430263002903D08E
:10129000026B02231A4302E0026B02239A430263A9
:1012A00002228263704710B501238363436BC72416
:1012B000A3434363436B5407640F23434363436B6C
:1012C000CC07E40F002C0BD080240AE00002005071
:1012D000001BB70000000540FF0F00000000154094
:1012E000002423434363436B02240C40002C01D0B1
:1012F000402400E000242343436310BD10B50322C3
:1013000082638A7812064B78DB041A430B781B043D
:101310001A43436B1A434263026AFF231B049A4336
:101320000262026ACB781B04FF24240423401A4380
:101330000262426804239A43426042680B79002BA0
:1013400001D0042300E000231A43426010BDC2060E
:10135000D20E01219140054A11607047C206D20E9B
:1013600001219140014A80321160704700E100E0A4
:1013700000BF2A4989690122920211400029F8D14F
:10138000264908600A280AD100BF24498969012238
:10139000920211400029F8D10D21204A11607047B6
:1013A00000B503461846FFF7E3FF00BD09E01B4800
:1013B000806902210840002803D118480068C0B2A3
:1013C0007047F4E71548806902210840002801D0E1
:1013D000002070470120FCE7104880690121C90204
:1013E0000840002801D0012070470020FCE710B51C
:1013F00004462046FFF7D4FF10BD30B504460D4625
:101400002046FFF7CDFF204630BD00B50246FFF76E
:10141000CDFF00BD01460020C043704700001540CD
:101420007047FEB5002002906448456AC00128401C
:10143000002801D00020FEBD0120400428400028E3
:1014400001D05F4F00E05E4F0120000328400028DC
:1014500001D0022000E0012001900320000228407A
:10146000060A002E01D1022408E0012E01D1042435
:1014700004E0022E01D1082400E01024A906890E00
:10148000203179430846214601F031F90090019955
:1014900001F02DF902900298CDE770B54748006938
:1014A00045076D0F002D01D1454C0EE0012D01D1F6
:1014B000EC030AE0022D03D1FFF7B3FF044604E07A
:1014C000032D01D13F4C00E03D4C3C48C069000772
:1014D000000F461C3146204601F009F970BD10B5D9
:1014E000FFF7DBFF3849086010BD08B559203749C0
:1014F00008601620086088200860304800680321D2
:1015000008432E490860002030490860FF20013060
:101510002A4948620020009009E02848C068042158
:101520000840002800D006E00098401C00902849A0
:1015300000988842F1D300BF25490098884217D20D
:101540001E48C06900090001801C1C49C86159205F
:101550001E49086016200860882008601748006946
:10156000C008C000801C15490861002017490860A8
:101570001248C06880210840002816D00F48C06972
:10158000000900010D49C861592010490860162062
:1015900008608820086009480069C008C000C01DB4
:1015A00006490861002009490860FFF798FF08BD57
:1015B00010B5FFF79AFFFFF733FF10BD0002005090
:1015C000001BB7001027000044000020000100505D
:1015D000A086010008B50024E44300F03CF900F0C7
:1015E00075F91948012219490368084600F0DAFD27
:1015F00028E00E2016490969C140C907C90F002912
:1016000015D000F031FD012811D1124800F042FE42
:1016100000F010FD0F480078C92802D10D48448819
:1016200005E00C480078CA2801D10024E443002CCE
:1016300008DB0948E2B2AF23DB0000210090084636
:1016400000F098FED5E7000048000020A8610000E7
:1016500040400050380800206000002010B50822EB
:1016600051038F4800F00BF90E2200218C4880387E
:1016700000F005F90E218A48803800F005F910BD08
:101680000EB58848FEF7F9FF87480068874908408B
:10169000401C87490843844908608648806989035B
:1016A00008408449886100200090042001900820AF
:1016B000029069467B48FFF720F801207949C96804
:1016C00008221143774AD1601146C9688908890008
:1016D0000143D16000BF00BF1046C06804218843A9
:1016E0001146C86000BF002273496E48FFF7D8F862
:1016F0000EBD00B587B0032000216E4A52698243B7
:101700000A436C4B5A6100BF05200007806B7721AC
:101710000904884311210904401805210907886339
:10172000E1204002019003200290002003900490E9
:1017300005906946487601A96048FFF70BFC07B0A1
:1017400000BD00B587B059205749C0310860162048
:10175000086088200860032000900020019001218B
:1017600068460172022141720321817202200390B6
:101770000120049023200590514806906846FEF70A
:10178000A1FE00204849C031086007B000BD10B577
:1017900045480068000C0004434908604048403850
:1017A0000068000A00023E49403908600846406A65
:1017B0000F2108433A4940394862002138484038EF
:1017C00000F068F801213648403800F063F8022143
:1017D0003348403800F05EF803213148403800F0CB
:1017E00059F805200007806B072109068843052169
:1017F000090788632A48803800680321090788435D
:101800002749803908600846406A01218903084356
:101810002349803948620E2121488038FEF796FD21
:101820000E211F48803800F035F810BD10B5082192
:101830001B4800F029F82348FEF7B8FE0820184995
:101840008968012282401143154A916000BF1E48F9
:10185000FEF7ACFE10BD10B559201349C031086029
:101860001620086088200860FFF76BFFFFF741FF34
:10187000FFF706FFFFF7F2FEFFF7D8FF10BD036882
:1018800093430B4303607047826801238B409A4364
:1018900082607047426A01238B409A4342627047DC
:1018A000C040005000000340400000508888FFFF07
:1018B00010110000000200500024F4000000154048
:1018C0000400030010270000E093040070B5002519
:1018D000002479A000F08AFD7E4800F0FDF900BFE9
:1018E0000E207D490969C140C907C90F0029F7D0F9
:1018F0007A4800F064FD002506E07848801C415DD0
:1019000077A000F073FD6D1C122DF6DB00F07DFB5F
:101910000446002C01D0204670BD002071490860AB
:101920000DE06420FEF742FE6E4801680068401C2E
:101930006C4A10606C48814201D9012403E000F038
:1019400093FB0128EDD100BF644800F0A3FC63497C
:10195000891C66A000F04AFD00F06CFB5D48783001
:1019600000F062FC0446002C01D02046D4E70020A1
:101970005C4908600DE06420FEF718FE59480168D4
:101980000068401C574A10605748814201D9012421
:1019900003E000F069FB0128EDD100BF4F4800F0E3
:1019A00079FC4E4802784B497C3154A000F01EFD72
:1019B00000F040FB4748403000F01CFB0446002C80
:1019C00001D02046A8E70020464908600DE06420C9
:1019D000FEF7ECFD434801680068401C414A106076
:1019E0004A48814201D9012403E000F03DFB01286F
:1019F000EDD100BF394800F04DFC00F01BFB44481E
:101A000000F0D2FC0446002C01D0204684E70020E0
:101A1000344908600DE06420FEF7C8FD31480168D4
:101A20000068401C2F4A10603848814201D90124C7
:101A300003E000F019FB0128EDD100BF274800F0BA
:101A400029FC26488078002802D132A000F0CEFC84
:101A500000F0F0FA012000F047FB0446002C01D012
:101A6000204659E700201F4908600DE06420FEF77A
:101A70009DFD1C4801680068401C1A4A10602348FC
:101A8000814201D9012403E000F0EEFA0128EDD1F2
:101A900000BF124800F0FEFB1048007F002803D171
:101AA00021A000F0A3FC02E022A000F09FFC00F0C7
:101AB000C1FA00BF30E700005468697320697320E1
:101AC000612044656D6F20746F207072696E74665A
:101AD0000A000000D80500204040005038080020CF
:101AE000256300005C000020A86100007665727329
:101AF000696F6E3D25730D0A0000000050534B3D89
:101B000025732C305825580D0A000000F8240100D8
:101B10001008002073657420737461746963206910
:101B200070206F6B210D0A0044484350204F4B2119
:101B30000D0A000044484350204572726F72210D17
:101B40000A00000000200021484A1162114609687D
:101B500001221143454A116000BF44490968C90781
:101B6000C90F0029F9D141490869704701463F4A28
:101B70001162126801231A433C4B1A6000BF3B4AB2
:101B80001268D207D20F002AF9D1384A1269D0B2AE
:101B9000704700B50023FFF7D5FF83B21806030C8A
:101BA000FFF7D0FF184383B2184600BD30B5044696
:101BB0000D46002300BF03E0FFF7C4FFE0545B1CA9
:101BC000AB42F9DB30BD70B505460E46002404E09B
:101BD000285DFFF7CBFF601C84B2B442F8DB70BD18
:101BE000FCB506460C46D02E03DD002C01D100BF0B
:101BF000FEE7684606709721417084702004010E4C
:101C00006846C17000250AE06946485DFFF7AEFFEF
:101C10000746852F01D13846FCBD681CC5B2042D8E
:101C2000F2DB0198F8E7F7B50D461646002010499B
:101C30000860104F00BF0E4801680068401C0C4A45
:101C40001060B94202D955242046FEBD31460098A5
:101C5000FFF7C6FF04B23220FEF7A8FC852CEAD1BC
:101C600031462846FFF7AFFF0020EEE700000340B3
:101C700054000020A0860100FEB506460C46032055
:101C800001900027002518E0605D2E280DD100206E
:101C90006946C8550027684600F093FCC2B2019817
:101CA000411EC9B20191325405E0625D3846791C8B
:101CB000CFB269460A54681CC5B2204600F0B4FC95
:101CC000A842E1D8605D6946C855684600F079FCD5
:101CD000C1B201983154FEBD10B5044600216161C6
:101CE000A1A12046183000F079FCA1A120467C304B
:101CF00000F074FC0721E16064204B21C9006118E9
:101D00004860002025210901611808719BA1252048
:101D100000012018401D00F061FC99A14720C0007F
:101D20002018001DFFF7A8FF98A14720C000201829
:101D30000830FFF7A1FF92A14720C00020180C3007
:101D4000FFF79AFF8EA14720C00020181030FFF740
:101D500093FF91A14720C00020181430FFF78CFF9B
:101D600087A18E48FFF788FF0021E1660A21E16321
:101D70008BA12046483000F031FC0121616405212F
:101D8000FF20F93001517D21C900001D015188A1BA
:101D90002046FF30F530FFF76FFF89A1E01DFF30CF
:101DA000FE3000F01BFC0121C42001550621C52096
:101DB00001550021C62001550121C720015584A1EC
:101DC0002046C83000F00AFC69A12046E93000F046
:101DD00005FC0021FF202B300155401C01557FA13F
:101DE0002046FF302D30FFF747FF68A12046FF3027
:101DF0003130FFF741FF6EA12046FF303530FFF74D
:101E00003BFF6BA12046FF303930FFF735FF62A161
:101E10002046FF303D30FFF72FFF0021FF204130EB
:101E2000015556A12046FF30423000F0D7FB6FA18C
:101E30002046FF30CD3000F0D1FB6CA12046FF30B2
:101E4000DE3000F0CBFB0121FF204D300155062193
:101E5000401C01550021401C01550121401C015529
:101E60005BA12046FF30513000F0B8FB40A1204676
:101E7000FF30723000F0B2FB0021FF20B33001557B
:101E8000401C015555A12046FF30B530FFF7F4FE48
:101E90003EA12046FF30B930FFF7EEFE44A12046B8
:101EA000FF30BD30FFF7E8FE41A12046FF30C130D2
:101EB000FFF7E2FE38A12046FF30C530FFF7DCFE19
:101EC0000021FF20C93001552CA12046FF30CA3027
:101ED00000F084FB002010BD0146087800024A781B
:101EE000104300028A7810430002CA7810437047FA
:101EF0000146C87800028A78104300024A781043ED
:101F000000020A7810437047FEB506460C460020D2
:101F100001900027002518E0605D2E280DD10020DB
:101F20006946C8550027684600F04BFBC2B20198CD
:101F3000411CC9B20191325405E0625D3846791CFA
:101F4000CFB269460A54681CC5B2204600F06CFB4B
:101F5000A842E1D800206946C855684600F031FB28
:101F6000C1B201983154FEBD485541574549000062
:101F7000313233343536373839300000434E0000C3
:101F80003139322E3136382E372E31003235352E5A
:101F90003235352E3235352E300000004800002015
:101FA00052414B3431315F41502D43414F000000CD
:101FB0003139322E3136382E31312E3100000000C9
:101FC0007777772E62616964752E636F6D0000000C
:101FD00052414B3431315F41500000003139322ED3
:101FE0003136382E31312E313232000061646D6964
:101FF0006E00000070B50446A6202060282221460D
:10200000FFF711FE05B2A8B270BD38B5BE20009032
:1020100004226946FFF707FE04B2A0B238BD0000F3
:1020200010B500F039F80446552C00D110BD194800
:102030000078FBE70020174908708870C870704767
:1020400010B5FFF7F7FF00F027F80446552C00D134
:1020500010BD10480078012803D00E488078012870
:1020600000D10124E0B2F3E710B500F015F8044602
:10207000552C01D1002010BD06480078FBE710B5B3
:1020800000F00AF80446552C01D1002010BD01488B
:10209000C078FBE74C00002010B500F017F904B23F
:1020A000552C01D1552010BDE007C00F002802D0EB
:1020B00001200C49087002202040002802D0012095
:1020C0000849487008202040002802D00120054916
:1020D000887004202040002802D001200149C870E7
:1020E0000020E0E74C0000207CB50446AC200090C6
:1020F000019408226946FFF796FD05B2A8B27CBD9F
:10210000FFB585B004460E461F460798030000F051
:102110005AFD0504111E2B384500B3200290039789
:102120006846068244820C2202A9B320FFF77BFD99
:1021300005B233E0B4200090002168468180C4805D
:1021400008226946B420FFF76EFD05B226E0B120F3
:10215000029003976846068244820C2202A9B120AD
:10216000FFF761FD05B219E0B2200090002168463A
:102170008180C48008226946B220FFF754FD05B271
:102180000CE0C420029003976846068244820C2229
:1021900002A9C420FFF747FD05B200BF00BFA8B2E7
:1021A00009B0F0BDFFB581B005460E4617463A4668
:1021B00031462846049BFFF7A3FF0446002C02D0BB
:1021C000204605B0F0BD00200F4908600DE06420F6
:1021D000FEF7ECF90C4801680068401C0A4A1060E0
:1021E0000A48814201D9012403E0FFF73DFF01289D
:1021F000EDD100BF064800F04DF806A000F0F6F85B
:10220000FFF718FF2046DCE75C00002048E80100EB
:10221000380800204F70656E20536F636B74204F39
:102220004B2E0D0A0000000070B50446A52020606A
:1022300044222146FFF7F7FC05B2A8B270BD0000AA
:10224000F8B50646114F00201149086000BF10483C
:1022500001680068401C0E4A1060B94202D955243A
:102260002046F8BD0021A220FFF7BAFC04B23220BC
:10227000FEF79CF9852CEAD1FFF78BFC05B2A9B2D9
:102280003046FFF793FC0020EBE70000A08601003A
:102290005400002070B50446002505480078012848
:1022A00004D12046FFF7CCFF05B200BF284670BD21
:1022B0004C00002010B55524FFF744FC84B2802068
:1022C0002040002800D15524204610BD70B5104D87
:1022D000002010490860552400BF0E4801680068BE
:1022E000401C0C4A1060A94202D95524204670BDFA
:1022F0000021A120FFF774FC04B23220FEF756F94A
:10230000852CEAD1FFF7D6FF04B2A0B2EFE70000B8
:10231000A086010054000020FFB5FFB0FFB0E5B07B
:1023200006460F461C46FFF78BFE0546552D03D18A
:102330007FB07FB069B0F0BD012D01D15820F7E723
:10234000B621019117486844416968460182448278
:1023500002960397224613486844016B05A800F0D3
:1023600085F9B122D20001A9B620FFF75CFC05B2C5
:10237000A8B2DDE7FFB581B005460E460A9F0BE027
:10238000009731462846049B039AFFF7C5FF04B225
:10239000552C00D100E000E0F2E700BFA0B205B08C
:1023A000F0BD00008005000070B50446AD2020603F
:1023B00018222146FFF737FC05B2A8B270BD70B5F0
:1023C000064600BF0021A020FFF70AFC04B232201D
:1023D000FEF7ECF8852CF5D1FFF7DBFB05B2A9B2CF
:1023E0003046FFF7E3FBA0B270BD00000FB4054913
:1023F00010B503AA029800F09FFA10BC08BC04B004
:10240000184700003C00002070B50C460546012A24
:1024100005D02878800600D5EA69002302E0012370
:1024200005E05B1C934202D2E05C0028F9D1A86968
:10243000E618C01AA861286AC01828622846C04653
:10244000C04604E06A682078A968641C9047B442DA
:10245000F8D32846C046C04670BD000070B504469B
:102460000D4621461068C046C0462188090502D5A0
:102470000F4A7A4402E00E4A7A440E322346002183
:10248000243305E006070009360F965D5E54491CAB
:102490000028F7D120780023000705D5702D03D040
:1024A000002901D002231132204600F0D5F970BD79
:1024B000A6070000F3B50446002081B02062204644
:1024C000E168884700287AD0252802D06268A16890
:1024D00071E0E16820460025884706460020E0615B
:1024E0000746A0612A2E0AD0304600F07AFB002869
:1024F00027D0B8000019303E0090866119E002989C
:10250000BA00121902C8916102902046E16888471A
:10251000012F064617D1E06900281FDA20208543E5
:102520001CE000980A2180694843009980193038DE
:1025300088612046E1688847064600F052FB002883
:10254000EFD1012F0AD02E2E08D12046E16888470E
:102550000646202005437F1C022FC3DBA06900280C
:1025600003DA4042A06101200543E80701D01020B2
:102570008543002E23D030464138192803D8012046
:10258000C00205432036204625603146029A154692
:10259000FDF7D4FD00280BD0012806D0ED1DE8087A
:1025A000C000083002908AE709E02D1D029586E7F9
:1025B00062683046A1689047206A401C7EE7206A26
:1025C000FEBD70B5064600F043F904680546304686
:1025D0000A22002100F0C4F92C6070BD034670B5DA
:1025E00002460B439B070FD10E4CE60100E008C2E8
:1025F00008C91D1B9D433542F9D0D9B21170521C38
:1026000000290DD01B0AF8E70B78491C1370521CE7
:10261000002B05D00B78491C1370521C002BF3D1F2
:1026200070BD00000101010130B5441C03E00178D8
:10263000401C00290DD08107F9D10B4BDD0104C8E6
:10264000D11A91432940FAD0001B0A0603D0C01EBC
:1026500030BD001B30BD0A0401D0801E30BD090210
:10266000FCD0401E30BD000001010101F8B5042A74
:102670002CD3830712D00B78491C0370401C521EC8
:1026800083070BD00B78491C0370401C521E830734
:1026900004D00B78491C0370401C521E8B079B0F03
:1026A00005D0C91ADF002023DE1B08C90AE0FDF7A8
:1026B00073FDF8BD1D4608C9FD401C46B4402C43BF
:1026C00010C0121F042AF5D2F308C91A521EF0D402
:1026D0000B78491C0370401C521EEAD40B78491C2D
:1026E0000370401C012AE4D409780170F8BD00226F
:1026F00003098B422CD3030A8B4211D300239C463F
:102700004EE003460B433CD4002243088B4231D3B6
:1027100003098B421CD3030A8B4201D394463FE04A
:10272000C3098B4201D3CB01C01A524183098B42AA
:1027300001D38B01C01A524143098B4201D34B0193
:10274000C01A524103098B4201D30B01C01A5241F6
:10275000C3088B4201D3CB00C01A524183088B427D
:1027600001D38B00C01A524143088B4201D34B0066
:10277000C01A5241411A00D20146524110467047D8
:102780005DE0CA0F00D04942031000D340425340DD
:1027900000229C4603098B422DD3030A8B4212D39D
:1027A000FC22890112BA030A8B420CD389019211CF
:1027B0008B4208D3890192118B4204D389013AD00C
:1027C000921100E08909C3098B4201D3CB01C01AE1
:1027D000524183098B4201D38B01C01A52414309F4
:1027E0008B4201D34B01C01A524103098B4201D3E2
:1027F0000B01C01A5241C3088B4201D3CB00C01A4F
:10280000524183088B4201D38B00C01A5241D9D266
:1028100043088B4201D34B00C01A5241411A00D2E7
:102820000146634652415B10104601D34042002BE3
:1028300000D54942704763465B1000D3404201B562
:102840000020C046C04602BD704770477047000078
:1028500000487047E40D0020FFB504460D4681B0E6
:10286000243000902168880604D51022E069914345
:10287000216000E00120A84201DD471B00E00027A5
:102880000498A1697A191018081AA0612078C00666
:1028900002D42046C046C046002608E0039862687D
:1028A000A168805D9047206A401C761C20620498D5
:1028B0008642F3DB2078C0060AD52046C046C046D3
:1028C00006E06268A16830209047206A401C2062C0
:1028D00038467F1E0028F4DC07E000986268A16893
:1028E000405D9047206A401C206228466D1E0028EB
:1028F000F3DC2046C046C0462078000602D5022000
:1029000005B0F0BD0120FBE710B54369002B02D0F4
:10291000C046C04601E0FFF777FD012010BD1278E8
:10292000014624310A7000224A700122ECE7116846
:102930000022D243E8E70000084B70B50D467B4407
:1029400000F057F804462846FEF764FD002802D040
:102950000020C04370BD204670BD0000B9EAFFFFF3
:10296000F7B50F460026009C2578641C002D05D085
:1029700000F032F80068405DC007F5D12B2D02D081
:102980002D2D18D0641E3946029A204600F044F8D6
:10299000002F04D03968A14201D100993960710536
:1029A000022400290BDA4042002803DDFFF750FF24
:1029B0000460A007FEBD012080020643E3E7002873
:1029C000F8DAFFF745FF04600048FEBDFFFFFF7F18
:1029D00000487047E40D002010B500F08FF8001D8E
:1029E00010BD00BF0D02000001694A1C0261087899
:1029F000704700B58FB00291002105910549019300
:102A000079440391114604906846FFF753FD0FB0D7
:102A100000BD0000E5FFFFFFF7B5154682B00027B7
:102A2000029C2078641C0197302802D0002D15D01C
:102A300015E020780127641C782804D0582802D09B
:102A4000002D09D00BE0002D01D0102D07D12078EA
:102A500000271025641C02E0082500E00A25002656
:102A6000009610E000990127694308182946714330
:102A7000020C80B200908E183804864201D30120E7
:102A800001902078641C294600F03CF80028E9DA1F
:102A90000398002805D0002F01D0641E00E0029C9E
:102AA00004600198002806D0FFF7D2FE02210160E1
:102AB000C81E05B0F0BD009930040843F9E775461B
:102AC000FFF786FFAE46050069465346C008C000C2
:102AD000854618B020B5FDF791FB60BC002749087A
:102AE000B6460026C0C5C0C5C0C5C0C5C0C5C0C5A6
:102AF000C0C5C0C5403D49008D467047004870477D
:102B0000040E00203A2800D23038202302469A438F
:102B1000412A01D310463738884201D30020C043F0
:102B200070470446C046C0462046FDF72FFB000014
:102B3000024670B50A4392072AD11E4DEE0104C821
:102B400008C9541B9443344017D0D0B2D9B2401AAC
:102B50002106014310D190B299B2401A21040143D9
:102B60000AD110021902000A090A401A210201437F
:102B700002D1100E190E401A70BD9A42DFD010BA61
:102B800019BA884201D9012070BD0020C04370BD30
:102B900002780B78401C491C002A09D09A4207D1C0
:102BA00002780B78401C491C002A01D09A42EFD0D1
:102BB000D01A70BD0101010101491820ABBEFEE72A
:102BC00026000200704730B47446641E2578641CE9
:102BD000AB4204D3635D5B00E31830BC18471D466D
:102BE000F8E730380A2801D20120704700207047EA
:102BF00010B500290AD00878002807D00548784485
:102C0000FFF796FF002801D0002010BD024878444D
:102C100010BD0000660000005E000000303132335D
:102C20003435363738394142434445464030580000
:102C30003031323334353637383961626364656632
:102C400040307800742D000000000020600000007B
:102C500004010000D42D000060000020E8170000EF
:102C6000200100001001000043000000F8FFFFFFFA
:102C7000004040404040404040404141414141408F
:102C80004040404040404040404040404040404044
:102C900040050202020202020202020202020202D3
:102CA00002202020202020202020200202020202D8
:102CB0000202909090909090101010101010101030
:102CC000101010101010101010101010020202023C
:102CD0000202888888888888080808080808080880
:102CE000080808080808080808080808020202027C
:102CF0004000000000000000000000000000000094
:102D000000000000000000000000000000000000C3
:102D100000000000000000000000000000000000B3
:102D200000000000000000000000000000000000A3
:102D30000000000000000000000000000000000093
:102D40000000000000000000000000000000000083
:102D50000000000000000000000000000000000073
:102D60000000000000000000000000000000000063
:102D700000000000FFFF1001FFFF10001C00FFFF1C
:102D8000FFFF1002FFFF1001FFFF2001FFFF000205
:102D9000FFFF00013002FFFF1003FFFF1002FFFFE3
:102DA0002002FFFFFFFF2013FFFF20033003FFFF80
:102DB0000000000000000000001BB7000000000041
:102DC0000000000000000000000000000000000003
:042DD00000000000FF
:04000005000001D125
:00000001FF
