:020000040800F2
:10000000F0170020AD010008831100087F110008DF
:100010008111000887030008E916000800000000AD
:10002000000000000000000000000000ED120008C9
:100030008903000800000000A5110008F312000861
:10004000C7010008C7010008C7010008C701000870
:10005000C7010008C7010008C7010008C701000860
:10006000C7010008C7010008C7010008C701000850
:10007000C7010008C7010008C7010008C701000840
:10008000C7010008C7010008C70100080000000000
:100090000000000000000000000000008B030008CA
:1000A000C7010008C7010008C7010008C701000810
:1000B000C7010008C7010008C7010008C701000800
:1000C000C7010008C7010008C7010008C7010008F0
:1000D000C7010008C7010008C701000800000000B0
:1000E000C7010008C7010008C701000800000000A0
:1000F000000000000000000000000000C701000830
:1001000000000000C7010008C7010008C70100087F
:1001100000000000000000000000000000000000DF
:10012000C7010008C7010008C7010008C70100088F
:10013000C7010008000000000000000000000000EF
:10014000000000000000000000000000C7010008DF
:10015000C7010008C7010008C7010008C70100085F
:10016000C7010008C70100080000000000000000EF
:10017000000000000000000000000000000000007F
:1001800000000000C701000800000000000000009F
:10019000C7010008C7010008DFF80CD000F080F8A4
:1001A00000480047491A0008F01700200648804719
:1001B00006480047FEE7FEE7FEE7FEE7FEE7FEE74C
:1001C000FEE7FEE7FEE7FEE7851300089901000859
:1001D00040EA01039B0703D009E008C9121F08C0C9
:1001E000042AFAD203E011F8013B00F8013B521E49
:1001F000F9D27047421C10F8011B0029FBD1801A6C
:100200007047034611F8012B00F8012B002AF9D1A1
:100210001846704770B5064601F078FA046805463E
:100220000A220021304600F002F82C6070BD2DE952
:10023000F04791460F4680460446002614F8015BBD
:100240002DB100F03FF80068405DC007F6D12B2DBE
:1002500002D02D2D18D0641E4A463946204600F0A3
:1002600035F827B13968A14201D1C7F8008071057E
:100270004FF002040BD54042002803DD01F046FA9E
:100280000460A007BDE8F08746F48066E4E7002834
:10029000F8DA01F03BFA04606FF00040F2E700008A
:1002A000064C074D06E0E06840F0010394E80700C3
:1002B00098471034AC42F6D3FFF772FF7C22000857
:1002C0009C22000800487047782200082DE9F05F62
:1002D00082460078002715468B460AF10104B9468C
:1002E000302801D09DB113E014F8010B01277828C4
:1002F00003D0582801D045B10AE00DB1102D07D127
:100300000027102514F8010B02E0082500E00A255B
:100310000026B0460EE005FB080005FB06F10127AC
:1003200001EB10461FFA80F8B6F5803F00D3B946BE
:1003300014F8010B294600F018F80028EBDABBF19D
:10034000000F05D00FB1641E00E05446CBF800400A
:10035000B9F1000F06D001F0D9F902210160C81EE1
:10036000BDE8F09F48EA0640FAE73A2800D2303864
:1003700020F02002412A01D3A2F13700884201D3A4
:100380004FF0FF307047FEE77047802000F064B800
:10039000FEE700002DE9F84F28484FF0000A0168F9
:1003A00041F001010160016801F001010091016863
:1003B00041F002010160016801F002010091016851
:1003C00041F0040101600068DFF8748000F004006F
:1003D000009000224021404600F013F9DFF86490BD
:1003E0004FF4807700223946484600F00AF9164C4F
:1003F00040200125C4E900050226C4E90256214631
:10040000404600F035F8802020601048C4E9010A19
:1004100021460F4800F02CF8C4E90075C4E90256E3
:100420002146484600F024F800220521172000F05C
:1004300035F9BDE8F84F172000F025B930380240F3
:100440000004024000000240480600200000211085
:100450000008024070470000044910B50A680242D3
:1004600002D00860FFF7F6FF10BD0000143C014009
:100470002DE9F84FDFF860B100224FF001084FF08E
:10048000030A4FF00F090BF1040E00BF0B6808FAC6
:1004900002F42340A3426ED14D68022D01D0122DEB
:1004A0000ED1D50800EB850CDCF820505607F70E6E
:1004B00009FA07F6B5430E69BE402E43CCF820601A
:1004C000066855000F790AFA05FC07F0030726EACB
:1004D0000C06AF40374307604E68012E05D0022E50
:1004E00003D0112E01D0122E0ED18668CF6826EAD5
:1004F0000C06AF40374387604668A6430C79C4F3C7
:100500000014944034434460C6688C6826EA0C06A4
:10051000AC403443C4604C68E40056D52F4C256889
:1005200045F480452560246822F0030504F48044E6
:1005300000942B4C2E19D6F8084895072F0F09FA6E
:1005400007F5AC43274DA84201D1002515E0264D03
:10055000A84201D1012510E0244DA84201D1022575
:100560000BE0234DA84201D1032506E0214DA8420E
:1005700002D1042501E028E00725BD402543C6F847
:100580000858DBF800405D464E689C43F60300D5F2
:100590001C432C60DEF8004075464E689C43B60351
:1005A00000D51C432C600C4D08352C684E689C43CC
:1005B000F60200D51C432C60074D0C352C684E68A4
:1005C0009C43B60200D51C432C60521C102AFFF439
:1005D0005DAFBDE8F88F0000003C014044380240A8
:1005E00000300140000002400004024000080240C8
:1005F000000C0240001002400069084000D00120B9
:1006000070470AB1816170470904FBE7014800683F
:10061000704700000000002002480168491C01608A
:1006200070470000000000200B4810B5016841F43D
:1006300000710160016841F480610160016841F46A
:1006400080710160032000F049F80F2000F006F8E7
:1006500000F018F8002010BD003C024010B5044620
:1006600007484FF47A710068B0FBF1F000F0A8FC85
:1006700000222146501E00F011F8002010BD00009D
:1006800014000020704700F01F0201219140400932
:10069000800000F1E020C0F800117047F0B40E4B6C
:1006A0001B680C46C3F30223C3F10705042D00D9D0
:1006B0000425191D072901D2002300E0DB1E0126B5
:1006C00006FA05F1491E214099409E40761E1640CB
:1006D0003143F0BC00F056BD0CED00E0064900F0DF
:1006E000070208684FF6FF03184040EA0220034A59
:1006F00010430860704700000CED00E00000FA05B0
:100700002DE9F047DFF8649105460F46D9F800005F
:1007100000F00F01F8B28046B94208D2014689F8CC
:100720000010D9F8000000F00F00B84274D128780A
:100730004F4C800705D52068A96820F0F0000843D9
:1007400020602878C00759D04949686808390128CD
:100750001AD002281BD0032819D00968890700295C
:100760005ADA216821F0030101432160FFF74EFFAF
:100770006968064641F28830012911D002291DD04E
:100780000329824627D035E009688903E7E709682D
:100790008901E4E7FFF73AFF811B514501D926E0C3
:1007A00082462068C0F381000128F3D126E000BF13
:1007B000FFF72CFF811B514501D918E082462068C4
:1007C000C0F381000228F3D118E000BFFFF71EFF3D
:1007D000811B51450BD82068C0F381000328F5D157
:1007E0000CE000BFFFF712FF811B514502D9032027
:1007F000BDE8F087206810F00C0FF3D1D9F8001095
:10080000484601F00F01B94208D980F8008000681D
:1008100000F00F00B84201D00120E9E72878400736
:1008200005D52068E96820F4E05008432060287866
:10083000000706D52068296920F4604040EAC1001D
:10084000206000F04BF82168F02292FAA2F201F049
:10085000F001B2FA82F2D140064A515CC840064922
:1008600008600F20FFF7FAFE0020C1E7003C0240BD
:1008700008380240E6210008140000200848094911
:10088000006809684FF4E05292FAA2F201F4E051D4
:10089000B2FA82F2D140044A515CC840704700006D
:1008A0001400002008380240E621000808480949E1
:1008B000006809684FF4604292FAA2F201F46041C4
:1008C000B2FA82F2D140044A515CC840704700003D
:1008D0001400002008380240E621000830B519480D
:1008E000006810F00C01184812D0184C04290ED0E2
:1008F00008290DD11349091F0A6802F03F030A684D
:10090000550247F6C07204D5B4FBF3F003E020466D
:1009100030BDB0FBF3F00B680968134092FAA2F205
:10092000B2FA82F2D34058434FF4403292FAA2F224
:1009300001F44031B2FA82F2D140491C4900B0FBC7
:10094000F1F030BD083802400024F40040787D0109
:100950002DE9F84F0446DFF8CC820078A8F1040BAB
:10096000C007ABF1040537D0D8F800104046C1F3FA
:100970008101012908D00068C0F3810002280AD152
:10098000DBF80000400206D52868800324D56068A3
:10099000002878D020E0A3492079891F087060687A
:1009A00068B1FFF733FE064605E000BFFFF72EFEF5
:1009B000801B642868D828688003F7D50CE0FFF70F
:1009C00025FE064605E000BFFFF720FE801B6428D9
:1009D000F0D828688003F7D42078934E80074FF032
:1009E000010A4FF0000742D5D8F80010404611F038
:1009F0000C0F08D00068C0F3810002280AD1DBF890
:100A00000000400206D42868800714D5E068012859
:100A100039D110E0E068D8B1C6F800A0FFF7F6FDC4
:100A2000814605E0FFF7F2FDA0EB09000228C1D8DE
:100A300028688007F6D52868F82292FAA2F2216980
:100A4000B2FA82F220F0F8009140084328600EE0EC
:100A50003760FFF7DBFD814606E000BFFFF7D6FDFC
:100A6000A0EB090002280FD828688007F6D4207868
:100A7000000728D56D486169A1B1C0F800A0FFF753
:100A8000C5FD814608E0CAE079E000BFFFF7BEFD82
:100A9000A0EB0900022872D862486C300068800719
:100AA000F4D510E00760FFF7B1FD814606E000BF16
:100AB000FFF7ACFDA0EB0900022860D859486C3064
:100AC00000688007F4D42078400749D5554838306D
:100AD000016841F080510160006800F08050009092
:100AE0005348016841F480710160FFF78FFD814632
:100AF00006E000BFFFF78AFDA0EB090002283ED800
:100B00004B480068C005F5D5DFF81891207A09F147
:100B1000680989F80000A06888B1FFF777FD0090A8
:100B200008E000BFFFF772FD0099411A41F28830DA
:100B300081426CD8D9F800008007F3D510E0FFF7A8
:100B400065FD009008E000BFFFF760FD0099411AC5
:100B500041F2883081425AD8D9F800008007F3D496
:100B6000A069E0B3D8F80010C1F38101022956D082
:100B70000228376604D0FFF749FD04464AE046E004
:100B8000FFF744FD074604E0FFF740FDC01B0228C5
:100B90003DD828688001F7D4D4E90701084347F617
:100BA000C07292FAA2F2616AB2FA82F29140A26A2B
:100BB0004FF0FF3303EB52024FF4403393FAA3F3A9
:100BC000B3FA83F39A40114308434FF0706292FAEC
:100BD000A2F2E16AB2FA82F29140084300E01CE01E
:100BE000CBF80000C6F860A0FFF710FD044604E053
:100BF000FFF70CFD001B022809D828688001F7D5F3
:100C00000BE000BFFFF702FD001B022802D9032002
:100C1000BDE8F88F28688001F4D40020F8E70120AF
:100C2000F6E700000838024000004742800E4742C5
:100C30000070004070B5040004D094F85100002505
:100C400010B106E0012070BD84F85050204600F03D
:100C500037F8022084F851002068016821F0400133
:100C60000160D4E901010843D4E9031211430843A8
:100C700061690843218B01F400710843E16908436D
:100C8000216A0843A16A084321680860A069042119
:100C900001EA1040616A084321684860A06AB0F523
:100CA000005F02D12168E06A08612068C16921F40F
:100CB0000061C1616565012084F85100002070BDAC
:100CC00030B5214887B0016841F001010160016839
:100CD00001F001010591016841F001010160016825
:100CE00001F001010591016841F001010160006816
:100CF00000F00100059014481430016841F480515F
:100D000001600068012100F48050059020200090CF
:100D10000220CDE901010524CDE903040B4D69460C
:100D20002846FFF7A5FB402000906946049428461A
:100D3000FFF79EFB80200090694604942846FFF749
:100D400097FB07B030BD0000303802400000024081
:100D50002DE9F84F044600200A9F9A4693460D4617
:100D6000ADF80000064694F850004FF00109012844
:100D70000ED0012084F85000FFF748FC804694F81C
:100D80005100616801280CD0B1F5827F07D102E0E3
:100D90000220BDE8F88FA16809B9042801D0022615
:100DA00005E155B1BBF1000F07D0BAF1000F04D037
:100DB00094F85100012802D004E00126F7E0052054
:100DC00084F8510000206065C4F838B0A4F83EA053
:100DD000A4F83CA02563A4F836A0A4F834A02064AD
:100DE0006064A06A4FF4005A50450AD12068016837
:100DF0004DF6FF72114001602068016841F4005116
:100E0000016020680168490603D4016841F040018F
:100E10000160E068B0F5006F606804D0F0B3E08E68
:100E2000012847D07FE010B1E08E01283BD1216836
:100E300035F8020BC860E08E401EE08633E000BF4C
:100E4000B9F1000F17D0E08EA8B12068816889073A
:100E500011D535F8021BC160E08E401EE086E08EA1
:100E60004FF0000938B9A06A504504D120680168E4
:100E700041F480510160E08F58B120688168C90752
:100E800007D0C0682BF8020BE08F401EE0874FF0C0
:100E90000109781C07D0FFF7B9FB00E00AE0A0EBDE
:100EA0000800B84271D2E08E0028C9D1E08F002836
:100EB000C6D13EE0216815F8010B0873E08E401E94
:100EC000E08630E0B9F1000F17D0E08EA8B12068BD
:100ED0008168890711D515F8011B0173E08E401E4A
:100EE000E086E08E4FF0000938B9A06A504504D181
:100EF0002068016841F480510160E08F58B120689A
:100F00008168C90707D0C0680BF8010BE08F401E4D
:100F1000E0874FF00109781C05D0FFF777FBA0EBC5
:100F20000800B84231D2E08E0028CBD1E08F0028F3
:100F3000C8D1A06A504513D101223B461146204634
:100F4000CDF8008000F066F920B1606D40F002003D
:100F500060651AE02068C068ADF80000BDF80000C8
:100F600020688168C90607D5616D41F0020161659D
:100F70004FF6EF71816001263B4601220221204697
:100F8000CDF8008000F046F908B103260FE0424694
:100F90003946204600F02EF918B101262020606560
:100FA00005E0A06818B92068C16880680090012039
:100FB00084F85100002084F850003046E9E670477C
:100FC00010B5401EB0F1807F01D3012010BD4FF05D
:100FD000E02460610F21601700F0D4F80020A061C8
:100FE00007202061002010BD10B5FFF7E8FF10BDFD
:100FF00070B5040004D094F83900002510B106E063
:10100000012070BD84F83850204600F023F82420D9
:1010100084F839002068C16821F40051C16020467D
:1010200000F0DAF92068016921F49041016120683B
:10103000416921F02A0141612068C16841F40051F1
:10104000C160E563202084F8390084F83A0000206C
:1010500070BD000030B5194887B0016841F001014A
:101060000160016801F001010591016841F0010191
:101070000160006800F00100059010481030016820
:1010800041F4003101600068012100F40030059056
:10109000042000900220CDE901010724CDE90304DA
:1010A000074D69462846FFF7E3F908200090694696
:1010B00004942846FFF7DCF907B030BD3038024011
:1010C000000002402DE9F843044690F839001E461E
:1010D00017460D46202850D135B32FB394F8380069
:1010E00001284AD0012084F838004FF00008C4F8E5
:1010F0003C80212084F83900FFF788FAA784E78430
:1011000081464FF48057E08C4B46401EE084A06837
:101110004FF00002B8424FF080012046009611D1F6
:1011200000F0B0FA00BB02E00120BDE8F883288897
:10113000C0F3080120684160206908B16D1C08E017
:10114000AD1C06E000F09EFA70B9216815F8010B9D
:101150004860E08C0028D6D14B4600224021204632
:10116000009600F08FFA08B10320DEE7202084F813
:10117000390084F838800020D7E70220D5E7FEE761
:10118000FEE770470907090E002806DA00F00F0095
:1011900000F1E02080F8141D704700F1E02080F895
:1011A00000147047704700002DE9F0470F4C81464E
:1011B00000200F4D1646884620602068411C2160A3
:1011C000A84202D95520BDE8F0873146484600F0D4
:1011D000E8FF07B2322000F08AF8852FEDD13146C2
:1011E000404600F0D1FF0020EDE70000280000207D
:1011F000A086010038B50B460092044600228021EB
:1012000000F008F8002804D0606D40F02000606510
:10121000032038BD2DE9F0411D4617460E46044611
:10122000DDF8188035E0681C33D02DB1FFF7EEF9FA
:10123000A0EB0800A8422CD32068416821F0E0010F
:1012400041606068B0F5827F0BD1A068B0F5004FB7
:1012500002D0B0F5806F04D12068016821F0400110
:101260000160A06AB0F5005F0AD1206801684DF600
:10127000FF72114001602068016841F40051016073
:10128000012084F85100002084F850000320BDE8BC
:10129000F0812068806836EA000004D00020B8425F
:1012A000C1D10020F3E70120F9E700000E4810B596
:1012B0000C4901601821C161002181604161072250
:1012C0000161C0E90A12C1604FF4007201628261DB
:1012D00041624FF482714160FFF7ACFC002800D0FE
:1012E000FEE710BD00300140F0050020704700F01F
:1012F00097BA10B5FFF790F9BDE81040FFF774BE3C
:1013000030B51E4893B00024016841F0805101605F
:10131000006800F0805011901948016821F44041A4
:1013200041F4004101600068022500F44040119042
:10133000012003901020009506950490CDE9074008
:101340004FF4C870099004200A9007200B9068465B
:10135000FFF7FEFA00B1FEE70F20CDE90C054FF4D0
:101360008050CDE90E4003210CA81094FFF7C8F976
:10137000002800D0FEE713B030BD00004038024026
:10138000007000401048016841F4700101600F488E
:10139000016841F0010101600C4A0021083211602E
:1013A00002680B4B1A400260031D0A4A1A60026869
:1013B00022F48022026005480C3001600249580680
:1013C000803908607047000088ED00E00038024076
:1013D000FFFFF6FE103000242DE9F04104460068BE
:1013E000016921F44052E168114301612168C86834
:1013F00049F20C6290432369A268E5691A43636964
:101400002B431A430243CA602168486920F44072A2
:10141000A06910434861E1696425B1F5004F974820
:10142000974A21684FF032083FD0914201D0814263
:101430007CD1FFF73BFA00EBC00101EB00106168C3
:101440008900B0FBF1F6FFF731FA00EBC00101EBC8
:10145000001061688900B0FBF1F0B0FBF5F06FF0AF
:101460001801484306EB800108EB0110B0FBF5F0D2
:1014700000F0F006FFF71AFA00EBC00101EB0010D4
:1014800061688900B0FBF1F0B0FBF5F006EB0016E7
:10149000FFF70CFA00EBC00101EB00106168890056
:1014A000B0FBF1F7FFF702FAD2E0914201D081429E
:1014B0003DD1FFF7FBF900EBC00101EB00106168C3
:1014C0004900B0FBF1F0B0FBF5F00601FFF7EEF9D3
:1014D00000EBC00101EB001061684900B0FBF1F7BF
:1014E000FFF7E4F900EBC00101EB0010616849006F
:1014F000B0FBF1F0B0FBF5F06FF01801484307EBDB
:10150000800108EBC100B0FBF5F000F0F80006EB3D
:101510004006FFF7CBF900EBC00101EB001061685A
:101520004900B0FBF1F7FFF7C1F93CE055E0FFF7E8
:10153000A5F900EBC00101EB001061684900B0FBA8
:10154000F1F0B0FBF5F00601FFF798F900EBC001F0
:1015500001EB001061684900B0FBF1F7FFF78EF96D
:1015600000EBC00101EB001061684900B0FBF1F035
:10157000B0FBF5F06FF01801484307EB800108EB72
:10158000C100B0FBF5F000F0F80006EB4006FFF7F5
:1015900075F900EBC00101EB001061684900B0FB78
:1015A000F1F7FFF76BF900EBC00101EB0010616888
:1015B0004900B0FBF1F0B0FBF5F06FF018014843C3
:1015C00007EB800108EBC100B0FBF5F000F007006D
:1015D000216830448860BDE8F081FFF74FF900EBE7
:1015E000C00101EB001061688900B0FBF1F6FFF764
:1015F00045F900EBC00101EB001061688900B0FB08
:10160000F1F0B0FBF5F06FF01801484306EB8001F4
:1016100008EB0110B0FBF5F000F0F006FFF72EF933
:1016200000EBC00101EB001061688900B0FBF1F034
:10163000B0FBF5F006EB0016FFF720F900EBC00158
:1016400001EB001061688900B0FBF1F7FFF716F9B4
:1016500000EBC00101EB001061688900B0FBF1F004
:10166000B0FBF5F06FF01801484307EB800108EB81
:101670000110B0FBF5F000F00F00A9E700140140E5
:10168000001001402DE9F041984617460E460446E9
:10169000069D1DE0681C1BD02DB1FEF7B7FFA0EB27
:1016A0000800A84214D92068C16821F4D071C16033
:1016B0002068416921F001014161202084F839004E
:1016C00084F83A00002084F838000320BDE8F08157
:1016D0002068006836EA000004D00020B842D9D063
:1016E0000020F3E70120F9E7FEE700000FB4054B07
:1016F00010B503A9044A029800F01BF810BC5DF86D
:1017000014FB000055180008300000200048704706
:101710003400002002E008C8121F08C1002AFAD1D4
:1017200070477047002001E001C1121F002AFBD161
:1017300070472DE9F84F994692468846054600279E
:1017400006E025280AD051464A4690476D1C7F1C6A
:1017500028780028F5D13846BDE8F88F002315F821
:10176000011F18462E2915D115F8011F04232A2917
:101770000DD06FF02F022978A1F13004092C09D87F
:1017800000EB800002EB400008446D1CF3E758F8C2
:10179000040B6D1C2A78002ADDD0632A07D0732A37
:1017A0000FD0104651464A4690477F1C2AE018F851
:1017B000042B8DF8002000218DF801106E460121C8
:1017C00003E058F8046B4FF0FF315A074FF0000464
:1017D00001D409E0641C84420BDA8C42FADB325DEE
:1017E000002AF7D105E0641C8C42FCDB305D002848
:1017F000F9D1274404E016F8010B51464A469047B8
:10180000641EF8D26D1CA3E710B50446FEF7FEFE79
:1018100004EB0004FEF7FAFEA042FBD310BD00006B
:1018200070B54FF0E024002265690949A369097881
:101830004843A1699942FCD002D2A3EB010302E024
:10184000A5EB010633441A440B468242F1D370BD26
:101850000400002013B54FF6FF73012269460248C9
:10186000FFF730FC00981CBDB005002010B500F05B
:1018700035FC4FF6FF7101EA002400F02FFC2043F5
:1018800080B210BD10B500F029FC80B2010600D472
:10189000552010BD2DE9F041564800F0ADF9564CE9
:1018A00080212046FEF7A8FE0028F9D0534800F01A
:1018B000D9FB524E00243019817851A0FFF716FF52
:1018C000641C122CF7DB00F08DF9002872D14D4C0E
:1018D000002546F2A817256007E06420FFF707FD02
:1018E0002068411C2160B84203D800F05DF901284E
:1018F000F3D1424800F01CFBB11C43A0FFF7F6FEF9
:1019000000F05EF93B48783000F068FB00286ED1AB
:10191000256007E06420FFF7EAFC2068411C216095
:10192000B84203D800F040F90128F3D1334800F061
:10193000FFFA00F045F92F48403000F049F900283F
:1019400055D1354F256007E06420FFF7D0FC2068B3
:10195000411C2160B84203D800F026F90128F3D1D8
:10196000264800F0E5FA00F02BF92448283800F06A
:101970002BFB00283BD1256007E06420FFF7B7FC74
:101980002068411C2160B84203D800F00DF90128FD
:10199000F3D11A4800F0CCFAB07810B91FA0FFF7C5
:1019A000A5FE00F00DF9012000F05EFA00281ED11E
:1019B000256008E01BE06420FFF799FC2068411CCB
:1019C0002160B84203D800F0EFF80128F3D10B48AA
:1019D00000F0AEFA307F40B916A0FFF787FE16A0E0
:1019E000FFF784FE15A0FFF781FE00F0E9F8BDE8DF
:1019F000F08100005C06002000080240BC080020C6
:101A0000256300002C00002076657273696F6E3DBF
:101A100025730D0A00000000F82401000D0A53652B
:101A20007420737461746963206970206F6B210D79
:101A30000A00000049503D000D0A00004448435090
:101A4000204F4B210D0A000008B5FEF7EDFDFFF712
:101A500057FCFEF79FFC2E482C490C2201604FF4E6
:101A6000E131416000218160C1600161C0E905216F
:101A7000C161FFF7BDFA00B1FEE7FFF717FC254D86
:101A80004FF48074002221462846FEF7BAFD32202A
:101A9000FFF7BAFE012221462846FEF7B2FDC82014
:101AA000FFF7B2FEFFF7F6FE1B480122436846F23D
:101AB000A810014600F0E4F94FF0FF35DFF85C9024
:101AC000174E184F2C464FF4AF6880214846FEF75A
:101AD00093FD78B900F068F801280BD1104800F0A8
:101AE00027FA00F06DF83078C92802D0CA280BD048
:101AF00000E07488002CE8DB0021E2B2434608468F
:101B0000009700F043FAE0E72C46DEE7004400408F
:101B1000B005002000000240040000200008024040
:101B2000BC080020380000202DE9F84F03260025CE
:101B30000F4681462C46AA46E84608E0385D2E2826
:101B400014D008F805006D1CEDB2641CE4B23846F0
:101B5000FEF750FBA042F1D8395D08F80510684641
:101B6000FEF758FB09F80600BDE8F88F08F805A055
:101B700000256846FEF74EFB09F80600761EF6B211
:101B8000E3E7000010B500F01BF800F053F955280A
:101B900007D004490A78012A02D08978012900D1A6
:101BA000012010BD0C00002010B500F043F95528AD
:101BB00002D00248007810BD002010BD0C000020AB
:101BC0000248002101708170C17070470C00002034
:101BD00010B5A621016001462822A620FFF7E4FAED
:101BE00080B210BD08B5BE20042269460090FFF700
:101BF000DBFA80B208BD00002DE9F0410025044663
:101C0000456163A11830FEF7FCFA63A104F17C0082
:101C1000FEF7F7FA0720E0606420C4F85C0284F85D
:101C2000545260A104F25520FEF7EBFA5EA104F5D0
:101C30000F70FFF779FF5FA104F51070FFF774FFD5
:101C400059A104F51170FFF76FFF57A104F5127049
:101C5000FFF76AFF5AA104F51370FFF765FF52A161
:101C60005848FFF761FF0A20E566E06356A104F1DA
:101C70004800FEF7C6FA012605206664C4F8F8019C
:101C80004FF47A70C4F8FC0152A104F5FA70FFF722
:101C90004BFF54A104F50170FEF7B3FA84F8C45069
:101CA000062784F8C57084F8C66084F8C75051A12F
:101CB00004F1C800FEF7A5FA50A104F1E900FEF70F
:101CC000A0FA84F82A5184F82B5150A104F596709B
:101CD000FFF72AFF37A104F59870FFF725FF3DA114
:101CE00004F59A70FFF720FF3AA104F59C70FFF706
:101CF0001BFF33A104F59E70FFF716FF84F84051D7
:101D000028A104F24110FEF77CFA44A104F5E67024
:101D1000FEF777FA41A104F2DD10FEF772FA84F8BB
:101D20004C6184F84D7184F84E5184F84F6126A1BE
:101D300004F5A870FEF765FA17A104F27110FEF71A
:101D400060FA84F8B25184F8B35136A104F5DA7020
:101D5000FFF7EAFE17A104F5DC70FFF7E5FE31A1FD
:101D600004F5DE70FFF7E0FE2EA104F5E070FFF74A
:101D7000DBFE13A104F5E270FFF7D6FE84F8C8512C
:101D800008A104F2C910FEF73CFA0020BDE8F0817A
:101D90004345484E4700000031323334353637383A
:101DA00039300000434E00003139322E3136382EA2
:101DB000372E31003235352E3235352E3235352E2F
:101DC000300000000800002052414B3431315F41A7
:101DD000500000003139322E3136382E31302E315C
:101DE000000000007777772E62616964752E636F5B
:101DF0006D0000004E657363616665006C74686F0A
:101E00006E77617931323334000000003139322E7F
:101E10003136382E31302E313232000061646D6936
:101E20006E0000003139322E3136382E31312E31EC
:101E30000000000010B500F089F800B255280FD05E
:101E4000084AC3074FF0010100D01170830700D585
:101E50005170030700D59170400700D5D170002064
:101E600010BD00000C0000201CB5AC21CDE9001015
:101E700008226946AC20FFF797F980B21CBD00002C
:101E800070B500F0B5F805001AD10E4C0E4E20606A
:101E900009E06420FFF72BFA2068411C2160B04262
:101EA00001D9012503E0FFF77FFE0128F1D10748A2
:101EB00000F03EF806A0FFF719FCFFF781FE284668
:101EC00070BD00002C00002048E80100BC08002084
:101ED0004F70656E20536F636B6574204F4B0D0A16
:101EE000000000002DE9F041104C05460E4E002088
:101EF0002060411C2160B04202D95520BDE8F0812C
:101F00000021A22000F04DF907B23220FFF7EFF9CF
:101F1000852F01D02068ECE7FFF7A8FC81B22846A6
:101F200000F000F90020E9E7A08601002800002069
:101F3000054A10B5014612780020012A03D108464F
:101F4000FFF7D0FF00B210BD0C00002070B50E4CA2
:101F50000C4D00202060411C2160A84201D9552071
:101F600070BD0021A12000F01CF906B23220FFF75D
:101F7000BEF9852E01D02068EDE7FFF783FC80B223
:101F800070BD0000A0860100280000202DE9F84364
:101F90001D46089C16460F4680462B46324639465B
:101FA0004046009400F072F800B2552802D080B28A
:101FB000BDE8F88301A0FFF799FBEEE752414B5FC4
:101FC000425553590D0A000010B5AD21016001467C
:101FD0001822AD20FFF7E8F880B210BD10B5A5219A
:101FE000016001464422A520FFF7DEF880B210BD53
:101FF00010B586B03AB10024012A0FD0022A1CD0B5
:10200000032A17D124E0B322ADF80810CDE900234C
:10201000ADF80A000C226946B32008E0B421ADF8FF
:1020200010400391ADF81200082203A9B420FFF775
:10203000BBF800B206B080B210BDB122ADF80810F6
:10204000CDE90023ADF80A000C226946B120EEE785
:10205000B221ADF810400391ADF81200082203A997
:10206000B220E4E770B504460021A02000F099F802
:1020700005B23220FFF73BF9852DF5D1FFF7F6FBCE
:1020800081B2204600F04EF8852070BD2DE9F04168
:102090001C4615460E460746DDF81880FFF772FD10
:1020A000552814D0012814D00B48B62122460160CF
:1020B0008581C481C0E9017641461030FEF788F879
:1020C0004FF4B1620449B620FFF76EF880B2BDE864
:1020D000F0815820FBE70000680E00203EB500208C
:1020E0000E4C8DF804008DF8080002464021204671
:1020F000FEF787FA41F288300090012301AA02A975
:102100000748FEF725FE08B1FEF742F901224021FB
:102110002046FEF776FA9DF804003EBD000402401A
:10212000F005002070B50D460646002404E000BF0F
:10213000FFF7D4FF3055641CAC42F9DB70BD0000E2
:1021400011B583B000200E4C8DF8040002464021EA
:102150002046FEF756FA41F288300090012301AA8A
:1021600003A90848FEF7F4FD08B1FEF711F90122B2
:1021700040212046FEF745FA9DF8040004B010BD4A
:1021800000040240F005002070B50D46064600240C
:1021900004E0305DFFF7D4FF641CA4B2AC42F8D376
:1021A00070BDF8B5D02800D9D1B18DF800009720C6
:1021B0008DF80100080A8DF802108DF80300002444
:1021C0006F46385DFFF7BCFF05460220FFF728FB8E
:1021D000852D06D0641CE4B2042CF2D33046F8BD41
:1021E000FEE72846F8BD00000000010203040102DA
:1021F000030406070809004040404040404040407A
:1022000041414141414040404040404040404040C9
:1022100040404040404040050202020202020202E9
:102220000202020202020220202020202020202080
:1022300020020202020202029090909090901010F0
:10224000101010101010101010101010101010108E
:102250001010020202020202888888888888080812
:1022600008080808080808080808080808080808EE
:102270000808020202024000F72100089C22000820
:10228000000000203800000014170008D4220008C5
:1022900038000020B81700002417000800000000D4
:1022A000000000000000000000000000000000002E
:1022B0000024F400000000000000000001020304FC
:1022C00006070809000000000000000000000000F0
:0422D000000000000A
:040000050800019955
:00000001FF
